:020000020000FC
:1000000000C0F89408E00EBF0FEF0DBF1FD000270F
:10001000009300010093010100930201009303018A
:100020003BD1589859985D985E9828D11CD00027EC
:100030004A9B01C001E000930201002700930301E5
:1000400005D18BD1A9D0B7D0C9D0FCCF0FE304B96B
:10005000002705B90FE007B90FE308B903E60AB9AD
:1000600008E80BB908954427772701E034D103E06D
:10007000B9D1E6E1F4E053D100EC2DD136D0002324
:10008000E9F3033259F10A32F9F00033B8F30A33D5
:10009000A8F70053502F772319F0713021F0EECFDD
:1000A000452F71E007C0642F440F440F460F440FE3
:1000B000450F72E000EC0FD1EEE5F4E030D100EC3A
:1000C0000AD1042F32D1DACF4427772700EC03D1AD
:1000D000EEE5F4E024D100ECFED0D0CF442371F261
:1000E000409300014093010108951EE318B94ED0DA
:1000F000349B23C0359B23C04F9B23C01DE318B9FD
:1001000045D0349B20C0359B20C04F9B20C01BE3B3
:1001100018B93CD0349B1DC0359B1DC04F9B1DC0E2
:1001200017E318B933D0349B1AC0359B1AC04F9BC4
:100130001AC000271FE318B9089501E315C002E3B0
:1001400013C003E311C004E30FC005E30DC006E3D1
:100150000BC007E309C008E307C009E305C00AE2D2
:1001600003C000E301C003E20F9304E13BD10F9110
:100170000F9310E318B90AD0349BFBCF359BF9CF0E
:100180004F9BF7CF1FE318B90F9108952F9322E3E8
:100190002A95F1F72F9108954A9B09C00091020119
:1001A000002341F401E00093020124D008950027C8
:1001B0000093020108954B9B04C0002700930301A4
:1001C000089500910301002341F404E10BD14B9900
:1001D00004C001E0009303012BD0089586DF0023C3
:1001E00041F0033219F00A3219F003C003D001C004
:1001F0001FD0089500910101002381F0599858986B
:100200005D9ABBD02DD0F5D0009101010A950093E5
:10021000010134D05D981AD0A0D008955D98599A04
:10022000589AB8D0E6D05898E4D010D096D0089517
:100230000091010110910001011738F4039500931A
:10024000010104D0B4D0D5D088D008955D985898D5
:1002500000910101002311F059980895599A0895C9
:100260000F938F9384E15E9A02E0BCD05E9802E126
:10027000B9D08A95C1F78F910F9108950F938F93FD
:1002800084E15E9A01E0AED05E9803E1ABD08A953E
:10029000C1F78F910F91089504E1A4D0289829986F
:1002A00013E02CD005E09ED013E028D002E09AD0D5
:1002B00013E024D002E096D012E020D002E092D0E9
:1002C00008E209D00CE007D006E005D001E003D039
:1002D00003E088D00895289804D00895289A01D082
:1002E00008950F931F93102F12951F7007D0102F92
:1002F0001F7004D01F910F916AD008951F932F9300
:1003000025B12170110F110F1C73212B25B9299ACA
:1003100000000000000029982F911F910895059179
:10032000002311F0DBDFFBCF08951F932F933F9342
:10033000202F11272A3018F02A501395FBCF1123B4
:1003400021F0012F30E3030FC9DF022F30E3030F49
:10035000C5DF3F912F911F91089501E0BCDF03E0BD
:1003600041D0E0E0F4E0DBDF00ECB5DFEEE0F4E00C
:10037000D6DF00910101D9DF089501E0ACDF03E091
:1003800031D0E4E2F4E0CBDF00ECA5DFE2E3F4E01F
:10039000C6DF089501E09FDF03E024D0ECE3F4E042
:1003A000BEDF00EC98DFEAE4F4E0B9DF089501E095
:1003B00092DF03E017D0E4E5F4E0B1DF00EC8BDF7F
:1003C000EEE0F4E0ACDF00910101AFDF08952F9380
:1003D0003F9325E13FEF3A95F1F72A95D9F73F9101
:1003E0002F9108952F93202FF2DF2A95E9F72F916F
:1003F00008950F930AEFF6DF0AEFF4DF0F910895E7
:10040000534D415254205041524B494E47004652A1
:1004100045453A200000534554204341504143494B
:1004200054593A00454E54525920414C4C4F57456F
:10043000440047415445204F50454E005041524BD7
:10044000494E472046554C4C00004E4F20454E54D7
:100450005259000043415220455849540000202081
:1004600020202020202020202020202020200000CC
:00000001FF
